{
  "_format": "hh-sol-artifact-1",
  "contractName": "MusicNFTMarketplace",
  "sourceName": "src/backend/contracts/MusicNFTMarketplace.sol",
  "abi": [
    {
      "inputs": [
        {
          "internalType": "uint256",
          "name": "_royaltyFee",
          "type": "uint256"
        },
        {
          "internalType": "address",
          "name": "_artist",
          "type": "address"
        },
        {
          "internalType": "uint256[]",
          "name": "_prices",
          "type": "uint256[]"
        }
      ],
      "stateMutability": "payable",
      "type": "constructor"
    },
    {
      "anonymous": false,
      "inputs": [
        {
          "indexed": true,
          "internalType": "address",
          "name": "owner",
          "type": "address"
        },
        {
          "indexed": true,
          "internalType": "address",
          "name": "approved",
          "type": "address"
        },
        {
          "indexed": true,
          "internalType": "uint256",
          "name": "tokenId",
          "type": "uint256"
        }
      ],
      "name": "Approval",
      "type": "event"
    },
    {
      "anonymous": false,
      "inputs": [
        {
          "indexed": true,
          "internalType": "address",
          "name": "owner",
          "type": "address"
        },
        {
          "indexed": true,
          "internalType": "address",
          "name": "operator",
          "type": "address"
        },
        {
          "indexed": false,
          "internalType": "bool",
          "name": "approved",
          "type": "bool"
        }
      ],
      "name": "ApprovalForAll",
      "type": "event"
    },
    {
      "anonymous": false,
      "inputs": [
        {
          "indexed": true,
          "internalType": "uint256",
          "name": "tokenId",
          "type": "uint256"
        },
        {
          "indexed": true,
          "internalType": "address",
          "name": "seller",
          "type": "address"
        },
        {
          "indexed": false,
          "internalType": "address",
          "name": "buyer",
          "type": "address"
        },
        {
          "indexed": false,
          "internalType": "uint256",
          "name": "price",
          "type": "uint256"
        }
      ],
      "name": "MarketItemBought",
      "type": "event"
    },
    {
      "anonymous": false,
      "inputs": [
        {
          "indexed": true,
          "internalType": "uint256",
          "name": "tokenId",
          "type": "uint256"
        },
        {
          "indexed": true,
          "internalType": "address",
          "name": "seller",
          "type": "address"
        },
        {
          "indexed": false,
          "internalType": "uint256",
          "name": "price",
          "type": "uint256"
        }
      ],
      "name": "MarketItemRelisted",
      "type": "event"
    },
    {
      "anonymous": false,
      "inputs": [
        {
          "indexed": true,
          "internalType": "address",
          "name": "previousOwner",
          "type": "address"
        },
        {
          "indexed": true,
          "internalType": "address",
          "name": "newOwner",
          "type": "address"
        }
      ],
      "name": "OwnershipTransferred",
      "type": "event"
    },
    {
      "anonymous": false,
      "inputs": [
        {
          "indexed": true,
          "internalType": "address",
          "name": "from",
          "type": "address"
        },
        {
          "indexed": true,
          "internalType": "address",
          "name": "to",
          "type": "address"
        },
        {
          "indexed": true,
          "internalType": "uint256",
          "name": "tokenId",
          "type": "uint256"
        }
      ],
      "name": "Transfer",
      "type": "event"
    },
    {
      "inputs": [
        {
          "internalType": "address",
          "name": "to",
          "type": "address"
        },
        {
          "internalType": "uint256",
          "name": "tokenId",
          "type": "uint256"
        }
      ],
      "name": "approve",
      "outputs": [],
      "stateMutability": "nonpayable",
      "type": "function"
    },
    {
      "inputs": [],
      "name": "artist",
      "outputs": [
        {
          "internalType": "address",
          "name": "",
          "type": "address"
        }
      ],
      "stateMutability": "view",
      "type": "function"
    },
    {
      "inputs": [
        {
          "internalType": "address",
          "name": "owner",
          "type": "address"
        }
      ],
      "name": "balanceOf",
      "outputs": [
        {
          "internalType": "uint256",
          "name": "",
          "type": "uint256"
        }
      ],
      "stateMutability": "view",
      "type": "function"
    },
    {
      "inputs": [],
      "name": "baseExtension",
      "outputs": [
        {
          "internalType": "string",
          "name": "",
          "type": "string"
        }
      ],
      "stateMutability": "view",
      "type": "function"
    },
    {
      "inputs": [],
      "name": "baseURI",
      "outputs": [
        {
          "internalType": "string",
          "name": "",
          "type": "string"
        }
      ],
      "stateMutability": "view",
      "type": "function"
    },
    {
      "inputs": [
        {
          "internalType": "uint256",
          "name": "_tokenId",
          "type": "uint256"
        }
      ],
      "name": "buyToken",
      "outputs": [],
      "stateMutability": "payable",
      "type": "function"
    },
    {
      "inputs": [],
      "name": "getAllUnsoldTokens",
      "outputs": [
        {
          "components": [
            {
              "internalType": "uint256",
              "name": "tokenId",
              "type": "uint256"
            },
            {
              "internalType": "address payable",
              "name": "seller",
              "type": "address"
            },
            {
              "internalType": "uint256",
              "name": "price",
              "type": "uint256"
            }
          ],
          "internalType": "struct MusicNFTMarketplace.MarketItem[]",
          "name": "",
          "type": "tuple[]"
        }
      ],
      "stateMutability": "view",
      "type": "function"
    },
    {
      "inputs": [
        {
          "internalType": "uint256",
          "name": "tokenId",
          "type": "uint256"
        }
      ],
      "name": "getApproved",
      "outputs": [
        {
          "internalType": "address",
          "name": "",
          "type": "address"
        }
      ],
      "stateMutability": "view",
      "type": "function"
    },
    {
      "inputs": [],
      "name": "getMyTokens",
      "outputs": [
        {
          "components": [
            {
              "internalType": "uint256",
              "name": "tokenId",
              "type": "uint256"
            },
            {
              "internalType": "address payable",
              "name": "seller",
              "type": "address"
            },
            {
              "internalType": "uint256",
              "name": "price",
              "type": "uint256"
            }
          ],
          "internalType": "struct MusicNFTMarketplace.MarketItem[]",
          "name": "",
          "type": "tuple[]"
        }
      ],
      "stateMutability": "view",
      "type": "function"
    },
    {
      "inputs": [
        {
          "internalType": "address",
          "name": "owner",
          "type": "address"
        },
        {
          "internalType": "address",
          "name": "operator",
          "type": "address"
        }
      ],
      "name": "isApprovedForAll",
      "outputs": [
        {
          "internalType": "bool",
          "name": "",
          "type": "bool"
        }
      ],
      "stateMutability": "view",
      "type": "function"
    },
    {
      "inputs": [
        {
          "internalType": "uint256",
          "name": "",
          "type": "uint256"
        }
      ],
      "name": "marketItems",
      "outputs": [
        {
          "internalType": "uint256",
          "name": "tokenId",
          "type": "uint256"
        },
        {
          "internalType": "address payable",
          "name": "seller",
          "type": "address"
        },
        {
          "internalType": "uint256",
          "name": "price",
          "type": "uint256"
        }
      ],
      "stateMutability": "view",
      "type": "function"
    },
    {
      "inputs": [],
      "name": "name",
      "outputs": [
        {
          "internalType": "string",
          "name": "",
          "type": "string"
        }
      ],
      "stateMutability": "view",
      "type": "function"
    },
    {
      "inputs": [],
      "name": "owner",
      "outputs": [
        {
          "internalType": "address",
          "name": "",
          "type": "address"
        }
      ],
      "stateMutability": "view",
      "type": "function"
    },
    {
      "inputs": [
        {
          "internalType": "uint256",
          "name": "tokenId",
          "type": "uint256"
        }
      ],
      "name": "ownerOf",
      "outputs": [
        {
          "internalType": "address",
          "name": "",
          "type": "address"
        }
      ],
      "stateMutability": "view",
      "type": "function"
    },
    {
      "inputs": [],
      "name": "renounceOwnership",
      "outputs": [],
      "stateMutability": "nonpayable",
      "type": "function"
    },
    {
      "inputs": [
        {
          "internalType": "uint256",
          "name": "_tokenId",
          "type": "uint256"
        },
        {
          "internalType": "uint256",
          "name": "_price",
          "type": "uint256"
        }
      ],
      "name": "resellToken",
      "outputs": [],
      "stateMutability": "payable",
      "type": "function"
    },
    {
      "inputs": [],
      "name": "royaltyFee",
      "outputs": [
        {
          "internalType": "uint256",
          "name": "",
          "type": "uint256"
        }
      ],
      "stateMutability": "view",
      "type": "function"
    },
    {
      "inputs": [
        {
          "internalType": "address",
          "name": "from",
          "type": "address"
        },
        {
          "internalType": "address",
          "name": "to",
          "type": "address"
        },
        {
          "internalType": "uint256",
          "name": "tokenId",
          "type": "uint256"
        }
      ],
      "name": "safeTransferFrom",
      "outputs": [],
      "stateMutability": "nonpayable",
      "type": "function"
    },
    {
      "inputs": [
        {
          "internalType": "address",
          "name": "from",
          "type": "address"
        },
        {
          "internalType": "address",
          "name": "to",
          "type": "address"
        },
        {
          "internalType": "uint256",
          "name": "tokenId",
          "type": "uint256"
        },
        {
          "internalType": "bytes",
          "name": "_data",
          "type": "bytes"
        }
      ],
      "name": "safeTransferFrom",
      "outputs": [],
      "stateMutability": "nonpayable",
      "type": "function"
    },
    {
      "inputs": [
        {
          "internalType": "address",
          "name": "operator",
          "type": "address"
        },
        {
          "internalType": "bool",
          "name": "approved",
          "type": "bool"
        }
      ],
      "name": "setApprovalForAll",
      "outputs": [],
      "stateMutability": "nonpayable",
      "type": "function"
    },
    {
      "inputs": [
        {
          "internalType": "bytes4",
          "name": "interfaceId",
          "type": "bytes4"
        }
      ],
      "name": "supportsInterface",
      "outputs": [
        {
          "internalType": "bool",
          "name": "",
          "type": "bool"
        }
      ],
      "stateMutability": "view",
      "type": "function"
    },
    {
      "inputs": [],
      "name": "symbol",
      "outputs": [
        {
          "internalType": "string",
          "name": "",
          "type": "string"
        }
      ],
      "stateMutability": "view",
      "type": "function"
    },
    {
      "inputs": [
        {
          "internalType": "uint256",
          "name": "tokenId",
          "type": "uint256"
        }
      ],
      "name": "tokenURI",
      "outputs": [
        {
          "internalType": "string",
          "name": "",
          "type": "string"
        }
      ],
      "stateMutability": "view",
      "type": "function"
    },
    {
      "inputs": [
        {
          "internalType": "address",
          "name": "from",
          "type": "address"
        },
        {
          "internalType": "address",
          "name": "to",
          "type": "address"
        },
        {
          "internalType": "uint256",
          "name": "tokenId",
          "type": "uint256"
        }
      ],
      "name": "transferFrom",
      "outputs": [],
      "stateMutability": "nonpayable",
      "type": "function"
    },
    {
      "inputs": [
        {
          "internalType": "address",
          "name": "newOwner",
          "type": "address"
        }
      ],
      "name": "transferOwnership",
      "outputs": [],
      "stateMutability": "nonpayable",
      "type": "function"
    },
    {
      "inputs": [
        {
          "internalType": "uint256",
          "name": "_royaltyFee",
          "type": "uint256"
        }
      ],
      "name": "updateRoyaltyFee",
      "outputs": [],
      "stateMutability": "nonpayable",
      "type": "function"
    }
  ],
  "bytecode": "0x6080604052604051806080016040528060598152602001620047f060599139600790805190602001906200003592919062000712565b506040518060400160405280600581526020017f2e6a736f6e000000000000000000000000000000000000000000000000000000815250600890805190602001906200008392919062000712565b5060405162004849380380620048498339818101604052810190620000a9919062000892565b6040518060400160405280600681526020017f44417070466900000000000000000000000000000000000000000000000000008152506040518060400160405280600481526020017f444150500000000000000000000000000000000000000000000000000000000081525081600090805190602001906200012d92919062000712565b5080600190805190602001906200014692919062000712565b505050620001696200015d620003d460201b60201c565b620003dc60201b60201c565b3483825162000179919062000aeb565b1115620001bd576040517f08c379a0000000000000000000000000000000000000000000000000000000008152600401620001b49062000a03565b60405180910390fd5b82600a8190555081600960006101000a81548173ffffffffffffffffffffffffffffffffffffffff021916908373ffffffffffffffffffffffffffffffffffffffff16021790555060005b81518160ff161015620003ca576000828260ff168151811062000254577f4e487b7100000000000000000000000000000000000000000000000000000000600052603260045260246000fd5b6020026020010151116200029f576040517f08c379a000000000000000000000000000000000000000000000000000000000815260040162000296906200099d565b60405180910390fd5b620002b4308260ff16620004a260201b60201c565b600b60405180606001604052808360ff1681526020013373ffffffffffffffffffffffffffffffffffffffff168152602001848460ff168151811062000323577f4e487b7100000000000000000000000000000000000000000000000000000000600052603260045260246000fd5b602002602001015181525090806001815401808255809150506001900390600052602060002090600302016000909190919091506000820151816000015560208201518160010160006101000a81548173ffffffffffffffffffffffffffffffffffffffff021916908373ffffffffffffffffffffffffffffffffffffffff1602179055506040820151816002015550508080620003c19062000c03565b91505062000208565b5050505062000df4565b600033905090565b6000600660009054906101000a900473ffffffffffffffffffffffffffffffffffffffff16905081600660006101000a81548173ffffffffffffffffffffffffffffffffffffffff021916908373ffffffffffffffffffffffffffffffffffffffff1602179055508173ffffffffffffffffffffffffffffffffffffffff168173ffffffffffffffffffffffffffffffffffffffff167f8be0079c531659141344cd1fd0a4f28419497f9722a3daafe3b4186f6b6457e060405160405180910390a35050565b600073ffffffffffffffffffffffffffffffffffffffff168273ffffffffffffffffffffffffffffffffffffffff16141562000515576040517f08c379a00000000000000000000000000000000000000000000000000000000081526004016200050c90620009e1565b60405180910390fd5b62000526816200069c60201b60201c565b1562000569576040517f08c379a00000000000000000000000000000000000000000000000000000000081526004016200056090620009bf565b60405180910390fd5b6200057d600083836200070860201b60201c565b6001600360008473ffffffffffffffffffffffffffffffffffffffff1673ffffffffffffffffffffffffffffffffffffffff1681526020019081526020016000206000828254620005cf919062000a8e565b92505081905550816002600083815260200190815260200160002060006101000a81548173ffffffffffffffffffffffffffffffffffffffff021916908373ffffffffffffffffffffffffffffffffffffffff160217905550808273ffffffffffffffffffffffffffffffffffffffff16600073ffffffffffffffffffffffffffffffffffffffff167fddf252ad1be2c89b69c2b068fc378daa952ba7f163c4a11628f55a4df523b3ef60405160405180910390a462000698600083836200070d60201b60201c565b5050565b60008073ffffffffffffffffffffffffffffffffffffffff166002600084815260200190815260200160002060009054906101000a900473ffffffffffffffffffffffffffffffffffffffff1673ffffffffffffffffffffffffffffffffffffffff1614159050919050565b505050565b505050565b828054620007209062000b97565b90600052602060002090601f01602090048101928262000744576000855562000790565b82601f106200075f57805160ff191683800117855562000790565b8280016001018555821562000790579182015b828111156200078f57825182559160200191906001019062000772565b5b5090506200079f9190620007a3565b5090565b5b80821115620007be576000816000905550600101620007a4565b5090565b6000620007d9620007d38462000a4e565b62000a25565b90508083825260208201905082856020860282011115620007f957600080fd5b60005b858110156200082d57816200081288826200087b565b845260208401935060208301925050600181019050620007fc565b5050509392505050565b600081519050620008488162000dc0565b92915050565b600082601f8301126200086057600080fd5b815162000872848260208601620007c2565b91505092915050565b6000815190506200088c8162000dda565b92915050565b600080600060608486031215620008a857600080fd5b6000620008b8868287016200087b565b9350506020620008cb8682870162000837565b925050604084015167ffffffffffffffff811115620008e957600080fd5b620008f7868287016200084e565b9150509250925092565b600062000910601f8362000a7d565b91506200091d8262000cd0565b602082019050919050565b600062000937601c8362000a7d565b9150620009448262000cf9565b602082019050919050565b60006200095e60208362000a7d565b91506200096b8262000d22565b602082019050919050565b60006200098560468362000a7d565b9150620009928262000d4b565b606082019050919050565b60006020820190508181036000830152620009b88162000901565b9050919050565b60006020820190508181036000830152620009da8162000928565b9050919050565b60006020820190508181036000830152620009fc816200094f565b9050919050565b6000602082019050818103600083015262000a1e8162000976565b9050919050565b600062000a3162000a44565b905062000a3f828262000bcd565b919050565b6000604051905090565b600067ffffffffffffffff82111562000a6c5762000a6b62000c90565b5b602082029050602081019050919050565b600082825260208201905092915050565b600062000a9b8262000b80565b915062000aa88362000b80565b9250827fffffffffffffffffffffffffffffffffffffffffffffffffffffffffffffffff0382111562000ae05762000adf62000c32565b5b828201905092915050565b600062000af88262000b80565b915062000b058362000b80565b9250817fffffffffffffffffffffffffffffffffffffffffffffffffffffffffffffffff048311821515161562000b415762000b4062000c32565b5b828202905092915050565b600062000b598262000b60565b9050919050565b600073ffffffffffffffffffffffffffffffffffffffff82169050919050565b6000819050919050565b600060ff82169050919050565b6000600282049050600182168062000bb057607f821691505b6020821081141562000bc75762000bc662000c61565b5b50919050565b62000bd88262000cbf565b810181811067ffffffffffffffff8211171562000bfa5762000bf962000c90565b5b80604052505050565b600062000c108262000b8a565b915060ff82141562000c275762000c2662000c32565b5b600182019050919050565b7f4e487b7100000000000000000000000000000000000000000000000000000000600052601160045260246000fd5b7f4e487b7100000000000000000000000000000000000000000000000000000000600052602260045260246000fd5b7f4e487b7100000000000000000000000000000000000000000000000000000000600052604160045260246000fd5b6000601f19601f8301169050919050565b7f5072696365206d7573742062652067726561746572207468616e207a65726f00600082015250565b7f4552433732313a20746f6b656e20616c7265616479206d696e74656400000000600082015250565b7f4552433732313a206d696e7420746f20746865207a65726f2061646472657373600082015250565b7f4465706c6f796572206d7573742070617920726f79616c74792066656520666f60008201527f72206561636820746f6b656e206c6973746564206f6e20746865206d61726b6560208201527f74706c6163650000000000000000000000000000000000000000000000000000604082015250565b62000dcb8162000b4c565b811462000dd757600080fd5b50565b62000de58162000b80565b811462000df157600080fd5b50565b6139ec8062000e046000396000f3fe6080604052600436106101815760003560e01c806370a08231116100d1578063b88d4fde1161008a578063c87b56dd11610064578063c87b56dd14610565578063e219fc75146105a2578063e985e9c5146105be578063f2fde38b146105fb57610181565b8063b88d4fde146104e6578063b8997a971461050f578063c66828621461053a57610181565b806370a08231146103e8578063715018a614610425578063767dd0761461043c5780638da5cb5b1461046757806395d89b4114610492578063a22cb465146104bd57610181565b806342842e0e1161013e57806351f28e141161011857806351f28e14146103165780635b3b136a146103555780636352211e146103805780636c0360eb146103bd57610181565b806342842e0e1461029957806343bc1612146102c25780634e83be47146102ed57610181565b806301ffc9a71461018657806306fdde03146101c3578063081812fc146101ee578063095ea7b31461022b57806323b872dd146102545780632d296bf11461027d575b600080fd5b34801561019257600080fd5b506101ad60048036038101906101a89190612839565b610624565b6040516101ba9190612dce565b60405180910390f35b3480156101cf57600080fd5b506101d8610706565b6040516101e59190612de9565b60405180910390f35b3480156101fa57600080fd5b506102156004803603810190610210919061288b565b610798565b6040516102229190612d1c565b60405180910390f35b34801561023757600080fd5b50610252600480360381019061024d91906127fd565b61081d565b005b34801561026057600080fd5b5061027b600480360381019061027691906126f7565b610935565b005b6102976004803603810190610292919061288b565b610995565b005b3480156102a557600080fd5b506102c060048036038101906102bb91906126f7565b610c35565b005b3480156102ce57600080fd5b506102d7610c55565b6040516102e49190612d1c565b60405180910390f35b3480156102f957600080fd5b50610314600480360381019061030f919061288b565b610c7b565b005b34801561032257600080fd5b5061033d6004803603810190610338919061288b565b610d01565b60405161034c93929190613046565b60405180910390f35b34801561036157600080fd5b5061036a610d5b565b6040516103779190612dac565b60405180910390f35b34801561038c57600080fd5b506103a760048036038101906103a2919061288b565b610f6f565b6040516103b49190612d1c565b60405180910390f35b3480156103c957600080fd5b506103d2611021565b6040516103df9190612de9565b60405180910390f35b3480156103f457600080fd5b5061040f600480360381019061040a9190612692565b6110af565b60405161041c919061302b565b60405180910390f35b34801561043157600080fd5b5061043a611167565b005b34801561044857600080fd5b506104516111ef565b60405161045e9190612dac565b60405180910390f35b34801561047357600080fd5b5061047c611462565b6040516104899190612d1c565b60405180910390f35b34801561049e57600080fd5b506104a761148c565b6040516104b49190612de9565b60405180910390f35b3480156104c957600080fd5b506104e460048036038101906104df91906127c1565b61151e565b005b3480156104f257600080fd5b5061050d60048036038101906105089190612746565b611534565b005b34801561051b57600080fd5b50610524611596565b604051610531919061302b565b60405180910390f35b34801561054657600080fd5b5061054f61159c565b60405161055c9190612de9565b60405180910390f35b34801561057157600080fd5b5061058c6004803603810190610587919061288b565b61162a565b6040516105999190612de9565b60405180910390f35b6105bc60048036038101906105b791906128b4565b6116d1565b005b3480156105ca57600080fd5b506105e560048036038101906105e091906126bb565b611890565b6040516105f29190612dce565b60405180910390f35b34801561060757600080fd5b50610622600480360381019061061d9190612692565b611924565b005b60007f80ac58cd000000000000000000000000000000000000000000000000000000007bffffffffffffffffffffffffffffffffffffffffffffffffffffffff1916827bffffffffffffffffffffffffffffffffffffffffffffffffffffffff191614806106ef57507f5b5e139f000000000000000000000000000000000000000000000000000000007bffffffffffffffffffffffffffffffffffffffffffffffffffffffff1916827bffffffffffffffffffffffffffffffffffffffffffffffffffffffff1916145b806106ff57506106fe82611a1c565b5b9050919050565b606060008054610715906132df565b80601f0160208091040260200160405190810160405280929190818152602001828054610741906132df565b801561078e5780601f106107635761010080835404028352916020019161078e565b820191906000526020600020905b81548152906001019060200180831161077157829003601f168201915b5050505050905090565b60006107a382611a86565b6107e2576040517f08c379a00000000000000000000000000000000000000000000000000000000081526004016107d990612f8b565b60405180910390fd5b6004600083815260200190815260200160002060009054906101000a900473ffffffffffffffffffffffffffffffffffffffff169050919050565b600061082882610f6f565b90508073ffffffffffffffffffffffffffffffffffffffff168373ffffffffffffffffffffffffffffffffffffffff161415610899576040517f08c379a000000000000000000000000000000000000000000000000000000000815260040161089090612feb565b60405180910390fd5b8073ffffffffffffffffffffffffffffffffffffffff166108b8611af2565b73ffffffffffffffffffffffffffffffffffffffff1614806108e757506108e6816108e1611af2565b611890565b5b610926576040517f08c379a000000000000000000000000000000000000000000000000000000000815260040161091d90612f0b565b60405180910390fd5b6109308383611afa565b505050565b610946610940611af2565b82611bb3565b610985576040517f08c379a000000000000000000000000000000000000000000000000000000000815260040161097c9061300b565b60405180910390fd5b610990838383611c91565b505050565b6000600b82815481106109d1577f4e487b7100000000000000000000000000000000000000000000000000000000600052603260045260246000fd5b90600052602060002090600302016002015490506000600b8381548110610a21577f4e487b7100000000000000000000000000000000000000000000000000000000600052603260045260246000fd5b906000526020600020906003020160010160009054906101000a900473ffffffffffffffffffffffffffffffffffffffff169050813414610a97576040517f08c379a0000000000000000000000000000000000000000000000000000000008152600401610a8e90612f6b565b60405180910390fd5b6000600b8481548110610ad3577f4e487b7100000000000000000000000000000000000000000000000000000000600052603260045260246000fd5b906000526020600020906003020160010160006101000a81548173ffffffffffffffffffffffffffffffffffffffff021916908373ffffffffffffffffffffffffffffffffffffffff160217905550610b2d303385611c91565b600960009054906101000a900473ffffffffffffffffffffffffffffffffffffffff1673ffffffffffffffffffffffffffffffffffffffff166108fc600a549081150290604051600060405180830381858888f19350505050158015610b97573d6000803e3d6000fd5b508073ffffffffffffffffffffffffffffffffffffffff166108fc349081150290604051600060405180830381858888f19350505050158015610bde573d6000803e3d6000fd5b508073ffffffffffffffffffffffffffffffffffffffff16837fd356b8423ef89ccba8e4f1dbeccc60b41825fd97d432f2e6a6dbd11ae6ecec113385604051610c28929190612d83565b60405180910390a3505050565b610c5083838360405180602001604052806000815250611534565b505050565b600960009054906101000a900473ffffffffffffffffffffffffffffffffffffffff1681565b610c83611af2565b73ffffffffffffffffffffffffffffffffffffffff16610ca1611462565b73ffffffffffffffffffffffffffffffffffffffff1614610cf7576040517f08c379a0000000000000000000000000000000000000000000000000000000008152600401610cee90612fab565b60405180910390fd5b80600a8190555050565b600b8181548110610d1157600080fd5b90600052602060002090600302016000915090508060000154908060010160009054906101000a900473ffffffffffffffffffffffffffffffffffffffff16908060020154905083565b60606000610d68336110af565b905060008167ffffffffffffffff811115610dac577f4e487b7100000000000000000000000000000000000000000000000000000000600052604160045260246000fd5b604051908082528060200260200182016040528015610de557816020015b610dd261258a565b815260200190600190039081610dca5790505b509050600080600090505b600b805490508160ff161015610f65573373ffffffffffffffffffffffffffffffffffffffff16610e238260ff16610f6f565b73ffffffffffffffffffffffffffffffffffffffff161415610f5257600b8160ff1681548110610e7c577f4e487b7100000000000000000000000000000000000000000000000000000000600052603260045260246000fd5b9060005260206000209060030201604051806060016040529081600082015481526020016001820160009054906101000a900473ffffffffffffffffffffffffffffffffffffffff1673ffffffffffffffffffffffffffffffffffffffff1673ffffffffffffffffffffffffffffffffffffffff168152602001600282015481525050838381518110610f38577f4e487b7100000000000000000000000000000000000000000000000000000000600052603260045260246000fd5b60200260200101819052508180610f4e90613342565b9250505b8080610f5d9061338b565b915050610df0565b5081935050505090565b6000806002600084815260200190815260200160002060009054906101000a900473ffffffffffffffffffffffffffffffffffffffff169050600073ffffffffffffffffffffffffffffffffffffffff168173ffffffffffffffffffffffffffffffffffffffff161415611018576040517f08c379a000000000000000000000000000000000000000000000000000000000815260040161100f90612f4b565b60405180910390fd5b80915050919050565b6007805461102e906132df565b80601f016020809104026020016040519081016040528092919081815260200182805461105a906132df565b80156110a75780601f1061107c576101008083540402835291602001916110a7565b820191906000526020600020905b81548152906001019060200180831161108a57829003601f168201915b505050505081565b60008073ffffffffffffffffffffffffffffffffffffffff168273ffffffffffffffffffffffffffffffffffffffff161415611120576040517f08c379a000000000000000000000000000000000000000000000000000000000815260040161111790612f2b565b60405180910390fd5b600360008373ffffffffffffffffffffffffffffffffffffffff1673ffffffffffffffffffffffffffffffffffffffff168152602001908152602001600020549050919050565b61116f611af2565b73ffffffffffffffffffffffffffffffffffffffff1661118d611462565b73ffffffffffffffffffffffffffffffffffffffff16146111e3576040517f08c379a00000000000000000000000000000000000000000000000000000000081526004016111da90612fab565b60405180910390fd5b6111ed6000611ef8565b565b606060006111fc306110af565b905060008167ffffffffffffffff811115611240577f4e487b7100000000000000000000000000000000000000000000000000000000600052604160045260246000fd5b60405190808252806020026020018201604052801561127957816020015b61126661258a565b81526020019060019003908161125e5790505b5090506000805b600b805490508160ff16101561145857600073ffffffffffffffffffffffffffffffffffffffff16600b8260ff16815481106112e5577f4e487b7100000000000000000000000000000000000000000000000000000000600052603260045260246000fd5b906000526020600020906003020160010160009054906101000a900473ffffffffffffffffffffffffffffffffffffffff1673ffffffffffffffffffffffffffffffffffffffff161461144557600b8160ff168154811061136f577f4e487b7100000000000000000000000000000000000000000000000000000000600052603260045260246000fd5b9060005260206000209060030201604051806060016040529081600082015481526020016001820160009054906101000a900473ffffffffffffffffffffffffffffffffffffffff1673ffffffffffffffffffffffffffffffffffffffff1673ffffffffffffffffffffffffffffffffffffffff16815260200160028201548152505083838151811061142b577f4e487b7100000000000000000000000000000000000000000000000000000000600052603260045260246000fd5b6020026020010181905250818061144190613342565b9250505b80806114509061338b565b915050611280565b5081935050505090565b6000600660009054906101000a900473ffffffffffffffffffffffffffffffffffffffff16905090565b60606001805461149b906132df565b80601f01602080910402602001604051908101604052809291908181526020018280546114c7906132df565b80156115145780601f106114e957610100808354040283529160200191611514565b820191906000526020600020905b8154815290600101906020018083116114f757829003601f168201915b5050505050905090565b611530611529611af2565b8383611fbe565b5050565b61154561153f611af2565b83611bb3565b611584576040517f08c379a000000000000000000000000000000000000000000000000000000000815260040161157b9061300b565b60405180910390fd5b6115908484848461212b565b50505050565b600a5481565b600880546115a9906132df565b80601f01602080910402602001604051908101604052809291908181526020018280546115d5906132df565b80156116225780601f106115f757610100808354040283529160200191611622565b820191906000526020600020905b81548152906001019060200180831161160557829003601f168201915b505050505081565b606061163582611a86565b611674576040517f08c379a000000000000000000000000000000000000000000000000000000000815260040161166b90612fcb565b60405180910390fd5b600061167e612187565b9050600081511161169e57604051806020016040528060008152506116c9565b806116a884612219565b6040516020016116b9929190612cf8565b6040516020818303038152906040525b915050919050565b600a543414611715576040517f08c379a000000000000000000000000000000000000000000000000000000000815260040161170c90612e8b565b60405180910390fd5b60008111611758576040517f08c379a000000000000000000000000000000000000000000000000000000000815260040161174f90612e0b565b60405180910390fd5b80600b8381548110611793577f4e487b7100000000000000000000000000000000000000000000000000000000600052603260045260246000fd5b90600052602060002090600302016002018190555033600b83815481106117e3577f4e487b7100000000000000000000000000000000000000000000000000000000600052603260045260246000fd5b906000526020600020906003020160010160006101000a81548173ffffffffffffffffffffffffffffffffffffffff021916908373ffffffffffffffffffffffffffffffffffffffff16021790555061183d333084611c91565b3373ffffffffffffffffffffffffffffffffffffffff16827fb2ba12d2566848b13548a3741edb565b69d3cbce7796959cd67431610207eb1383604051611884919061302b565b60405180910390a35050565b6000600560008473ffffffffffffffffffffffffffffffffffffffff1673ffffffffffffffffffffffffffffffffffffffff16815260200190815260200160002060008373ffffffffffffffffffffffffffffffffffffffff1673ffffffffffffffffffffffffffffffffffffffff16815260200190815260200160002060009054906101000a900460ff16905092915050565b61192c611af2565b73ffffffffffffffffffffffffffffffffffffffff1661194a611462565b73ffffffffffffffffffffffffffffffffffffffff16146119a0576040517f08c379a000000000000000000000000000000000000000000000000000000000815260040161199790612fab565b60405180910390fd5b600073ffffffffffffffffffffffffffffffffffffffff168173ffffffffffffffffffffffffffffffffffffffff161415611a10576040517f08c379a0000000000000000000000000000000000000000000000000000000008152600401611a0790612e4b565b60405180910390fd5b611a1981611ef8565b50565b60007f01ffc9a7000000000000000000000000000000000000000000000000000000007bffffffffffffffffffffffffffffffffffffffffffffffffffffffff1916827bffffffffffffffffffffffffffffffffffffffffffffffffffffffff1916149050919050565b60008073ffffffffffffffffffffffffffffffffffffffff166002600084815260200190815260200160002060009054906101000a900473ffffffffffffffffffffffffffffffffffffffff1673ffffffffffffffffffffffffffffffffffffffff1614159050919050565b600033905090565b816004600083815260200190815260200160002060006101000a81548173ffffffffffffffffffffffffffffffffffffffff021916908373ffffffffffffffffffffffffffffffffffffffff160217905550808273ffffffffffffffffffffffffffffffffffffffff16611b6d83610f6f565b73ffffffffffffffffffffffffffffffffffffffff167f8c5be1e5ebec7d5bd14f71427d1e84f3dd0314c0f7b2291e5b200ac8c7c3b92560405160405180910390a45050565b6000611bbe82611a86565b611bfd576040517f08c379a0000000000000000000000000000000000000000000000000000000008152600401611bf490612eeb565b60405180910390fd5b6000611c0883610f6f565b90508073ffffffffffffffffffffffffffffffffffffffff168473ffffffffffffffffffffffffffffffffffffffff161480611c7757508373ffffffffffffffffffffffffffffffffffffffff16611c5f84610798565b73ffffffffffffffffffffffffffffffffffffffff16145b80611c885750611c878185611890565b5b91505092915050565b8273ffffffffffffffffffffffffffffffffffffffff16611cb182610f6f565b73ffffffffffffffffffffffffffffffffffffffff1614611d07576040517f08c379a0000000000000000000000000000000000000000000000000000000008152600401611cfe90612e6b565b60405180910390fd5b600073ffffffffffffffffffffffffffffffffffffffff168273ffffffffffffffffffffffffffffffffffffffff161415611d77576040517f08c379a0000000000000000000000000000000000000000000000000000000008152600401611d6e90612eab565b60405180910390fd5b611d828383836123c6565b611d8d600082611afa565b6001600360008573ffffffffffffffffffffffffffffffffffffffff1673ffffffffffffffffffffffffffffffffffffffff1681526020019081526020016000206000828254611ddd91906131d6565b925050819055506001600360008473ffffffffffffffffffffffffffffffffffffffff1673ffffffffffffffffffffffffffffffffffffffff1681526020019081526020016000206000828254611e34919061314f565b92505081905550816002600083815260200190815260200160002060006101000a81548173ffffffffffffffffffffffffffffffffffffffff021916908373ffffffffffffffffffffffffffffffffffffffff160217905550808273ffffffffffffffffffffffffffffffffffffffff168473ffffffffffffffffffffffffffffffffffffffff167fddf252ad1be2c89b69c2b068fc378daa952ba7f163c4a11628f55a4df523b3ef60405160405180910390a4611ef38383836123cb565b505050565b6000600660009054906101000a900473ffffffffffffffffffffffffffffffffffffffff16905081600660006101000a81548173ffffffffffffffffffffffffffffffffffffffff021916908373ffffffffffffffffffffffffffffffffffffffff1602179055508173ffffffffffffffffffffffffffffffffffffffff168173ffffffffffffffffffffffffffffffffffffffff167f8be0079c531659141344cd1fd0a4f28419497f9722a3daafe3b4186f6b6457e060405160405180910390a35050565b8173ffffffffffffffffffffffffffffffffffffffff168373ffffffffffffffffffffffffffffffffffffffff16141561202d576040517f08c379a000000000000000000000000000000000000000000000000000000000815260040161202490612ecb565b60405180910390fd5b80600560008573ffffffffffffffffffffffffffffffffffffffff1673ffffffffffffffffffffffffffffffffffffffff16815260200190815260200160002060008473ffffffffffffffffffffffffffffffffffffffff1673ffffffffffffffffffffffffffffffffffffffff16815260200190815260200160002060006101000a81548160ff0219169083151502179055508173ffffffffffffffffffffffffffffffffffffffff168373ffffffffffffffffffffffffffffffffffffffff167f17307eab39ab6107e8899845ad3d59bd9653f200f220920489ca2b5937696c318360405161211e9190612dce565b60405180910390a3505050565b612136848484611c91565b612142848484846123d0565b612181576040517f08c379a000000000000000000000000000000000000000000000000000000000815260040161217890612e2b565b60405180910390fd5b50505050565b606060078054612196906132df565b80601f01602080910402602001604051908101604052809291908181526020018280546121c2906132df565b801561220f5780601f106121e45761010080835404028352916020019161220f565b820191906000526020600020905b8154815290600101906020018083116121f257829003601f168201915b5050505050905090565b60606000821415612261576040518060400160405280600181526020017f300000000000000000000000000000000000000000000000000000000000000081525090506123c1565b600082905060005b6000821461229357808061227c90613342565b915050600a8261228c91906131a5565b9150612269565b60008167ffffffffffffffff8111156122d5577f4e487b7100000000000000000000000000000000000000000000000000000000600052604160045260246000fd5b6040519080825280601f01601f1916602001820160405280156123075781602001600182028036833780820191505090505b5090505b600085146123ba5760018261232091906131d6565b9150600a8561232f91906133b5565b603061233b919061314f565b60f81b818381518110612377577f4e487b7100000000000000000000000000000000000000000000000000000000600052603260045260246000fd5b60200101907effffffffffffffffffffffffffffffffffffffffffffffffffffffffffffff1916908160001a905350600a856123b391906131a5565b945061230b565b8093505050505b919050565b505050565b505050565b60006123f18473ffffffffffffffffffffffffffffffffffffffff16612567565b1561255a578373ffffffffffffffffffffffffffffffffffffffff1663150b7a0261241a611af2565b8786866040518563ffffffff1660e01b815260040161243c9493929190612d37565b602060405180830381600087803b15801561245657600080fd5b505af192505050801561248757506040513d601f19601f820116820180604052508101906124849190612862565b60015b61250a573d80600081146124b7576040519150601f19603f3d011682016040523d82523d6000602084013e6124bc565b606091505b50600081511415612502576040517f08c379a00000000000000000000000000000000000000000000000000000000081526004016124f990612e2b565b60405180910390fd5b805181602001fd5b63150b7a0260e01b7bffffffffffffffffffffffffffffffffffffffffffffffffffffffff1916817bffffffffffffffffffffffffffffffffffffffffffffffffffffffff19161491505061255f565b600190505b949350505050565b6000808273ffffffffffffffffffffffffffffffffffffffff163b119050919050565b604051806060016040528060008152602001600073ffffffffffffffffffffffffffffffffffffffff168152602001600081525090565b60006125d46125cf846130a2565b61307d565b9050828152602081018484840111156125ec57600080fd5b6125f784828561329d565b509392505050565b60008135905061260e8161395a565b92915050565b60008135905061262381613971565b92915050565b60008135905061263881613988565b92915050565b60008151905061264d81613988565b92915050565b600082601f83011261266457600080fd5b81356126748482602086016125c1565b91505092915050565b60008135905061268c8161399f565b92915050565b6000602082840312156126a457600080fd5b60006126b2848285016125ff565b91505092915050565b600080604083850312156126ce57600080fd5b60006126dc858286016125ff565b92505060206126ed858286016125ff565b9150509250929050565b60008060006060848603121561270c57600080fd5b600061271a868287016125ff565b935050602061272b868287016125ff565b925050604061273c8682870161267d565b9150509250925092565b6000806000806080858703121561275c57600080fd5b600061276a878288016125ff565b945050602061277b878288016125ff565b935050604061278c8782880161267d565b925050606085013567ffffffffffffffff8111156127a957600080fd5b6127b587828801612653565b91505092959194509250565b600080604083850312156127d457600080fd5b60006127e2858286016125ff565b92505060206127f385828601612614565b9150509250929050565b6000806040838503121561281057600080fd5b600061281e858286016125ff565b925050602061282f8582860161267d565b9150509250929050565b60006020828403121561284b57600080fd5b600061285984828501612629565b91505092915050565b60006020828403121561287457600080fd5b60006128828482850161263e565b91505092915050565b60006020828403121561289d57600080fd5b60006128ab8482850161267d565b91505092915050565b600080604083850312156128c757600080fd5b60006128d58582860161267d565b92505060206128e68582860161267d565b9150509250929050565b60006128fc8383612c98565b60608301905092915050565b6129118161321c565b82525050565b6129208161321c565b82525050565b61292f8161320a565b82525050565b6000612940826130e3565b61294a8185613111565b9350612955836130d3565b8060005b8381101561298657815161296d88826128f0565b975061297883613104565b925050600181019050612959565b5085935050505092915050565b61299c8161322e565b82525050565b60006129ad826130ee565b6129b78185613122565b93506129c78185602086016132ac565b6129d0816134a2565b840191505092915050565b60006129e6826130f9565b6129f08185613133565b9350612a008185602086016132ac565b612a09816134a2565b840191505092915050565b6000612a1f826130f9565b612a298185613144565b9350612a398185602086016132ac565b80840191505092915050565b6000612a52601f83613133565b9150612a5d826134b3565b602082019050919050565b6000612a75603283613133565b9150612a80826134dc565b604082019050919050565b6000612a98602683613133565b9150612aa38261352b565b604082019050919050565b6000612abb602583613133565b9150612ac68261357a565b604082019050919050565b6000612ade601083613133565b9150612ae9826135c9565b602082019050919050565b6000612b01602483613133565b9150612b0c826135f2565b604082019050919050565b6000612b24601983613133565b9150612b2f82613641565b602082019050919050565b6000612b47602c83613133565b9150612b528261366a565b604082019050919050565b6000612b6a603883613133565b9150612b75826136b9565b604082019050919050565b6000612b8d602a83613133565b9150612b9882613708565b604082019050919050565b6000612bb0602983613133565b9150612bbb82613757565b604082019050919050565b6000612bd3603e83613133565b9150612bde826137a6565b604082019050919050565b6000612bf6602c83613133565b9150612c01826137f5565b604082019050919050565b6000612c19602083613133565b9150612c2482613844565b602082019050919050565b6000612c3c602f83613133565b9150612c478261386d565b604082019050919050565b6000612c5f602183613133565b9150612c6a826138bc565b604082019050919050565b6000612c82603183613133565b9150612c8d8261390b565b604082019050919050565b606082016000820151612cae6000850182612cda565b506020820151612cc16020850182612908565b506040820151612cd46040850182612cda565b50505050565b612ce381613286565b82525050565b612cf281613286565b82525050565b6000612d048285612a14565b9150612d108284612a14565b91508190509392505050565b6000602082019050612d316000830184612926565b92915050565b6000608082019050612d4c6000830187612926565b612d596020830186612926565b612d666040830185612ce9565b8181036060830152612d7881846129a2565b905095945050505050565b6000604082019050612d986000830185612926565b612da56020830184612ce9565b9392505050565b60006020820190508181036000830152612dc68184612935565b905092915050565b6000602082019050612de36000830184612993565b92915050565b60006020820190508181036000830152612e0381846129db565b905092915050565b60006020820190508181036000830152612e2481612a45565b9050919050565b60006020820190508181036000830152612e4481612a68565b9050919050565b60006020820190508181036000830152612e6481612a8b565b9050919050565b60006020820190508181036000830152612e8481612aae565b9050919050565b60006020820190508181036000830152612ea481612ad1565b9050919050565b60006020820190508181036000830152612ec481612af4565b9050919050565b60006020820190508181036000830152612ee481612b17565b9050919050565b60006020820190508181036000830152612f0481612b3a565b9050919050565b60006020820190508181036000830152612f2481612b5d565b9050919050565b60006020820190508181036000830152612f4481612b80565b9050919050565b60006020820190508181036000830152612f6481612ba3565b9050919050565b60006020820190508181036000830152612f8481612bc6565b9050919050565b60006020820190508181036000830152612fa481612be9565b9050919050565b60006020820190508181036000830152612fc481612c0c565b9050919050565b60006020820190508181036000830152612fe481612c2f565b9050919050565b6000602082019050818103600083015261300481612c52565b9050919050565b6000602082019050818103600083015261302481612c75565b9050919050565b60006020820190506130406000830184612ce9565b92915050565b600060608201905061305b6000830186612ce9565b6130686020830185612917565b6130756040830184612ce9565b949350505050565b6000613087613098565b90506130938282613311565b919050565b6000604051905090565b600067ffffffffffffffff8211156130bd576130bc613473565b5b6130c6826134a2565b9050602081019050919050565b6000819050602082019050919050565b600081519050919050565b600081519050919050565b600081519050919050565b6000602082019050919050565b600082825260208201905092915050565b600082825260208201905092915050565b600082825260208201905092915050565b600081905092915050565b600061315a82613286565b915061316583613286565b9250827fffffffffffffffffffffffffffffffffffffffffffffffffffffffffffffffff0382111561319a576131996133e6565b5b828201905092915050565b60006131b082613286565b91506131bb83613286565b9250826131cb576131ca613415565b5b828204905092915050565b60006131e182613286565b91506131ec83613286565b9250828210156131ff576131fe6133e6565b5b828203905092915050565b600061321582613266565b9050919050565b600061322782613266565b9050919050565b60008115159050919050565b60007fffffffff0000000000000000000000000000000000000000000000000000000082169050919050565b600073ffffffffffffffffffffffffffffffffffffffff82169050919050565b6000819050919050565b600060ff82169050919050565b82818337600083830152505050565b60005b838110156132ca5780820151818401526020810190506132af565b838111156132d9576000848401525b50505050565b600060028204905060018216806132f757607f821691505b6020821081141561330b5761330a613444565b5b50919050565b61331a826134a2565b810181811067ffffffffffffffff8211171561333957613338613473565b5b80604052505050565b600061334d82613286565b91507fffffffffffffffffffffffffffffffffffffffffffffffffffffffffffffffff8214156133805761337f6133e6565b5b600182019050919050565b600061339682613290565b915060ff8214156133aa576133a96133e6565b5b600182019050919050565b60006133c082613286565b91506133cb83613286565b9250826133db576133da613415565b5b828206905092915050565b7f4e487b7100000000000000000000000000000000000000000000000000000000600052601160045260246000fd5b7f4e487b7100000000000000000000000000000000000000000000000000000000600052601260045260246000fd5b7f4e487b7100000000000000000000000000000000000000000000000000000000600052602260045260246000fd5b7f4e487b7100000000000000000000000000000000000000000000000000000000600052604160045260246000fd5b6000601f19601f8301169050919050565b7f5072696365206d7573742062652067726561746572207468616e207a65726f00600082015250565b7f4552433732313a207472616e7366657220746f206e6f6e20455243373231526560008201527f63656976657220696d706c656d656e7465720000000000000000000000000000602082015250565b7f4f776e61626c653a206e6577206f776e657220697320746865207a65726f206160008201527f6464726573730000000000000000000000000000000000000000000000000000602082015250565b7f4552433732313a207472616e736665722066726f6d20696e636f72726563742060008201527f6f776e6572000000000000000000000000000000000000000000000000000000602082015250565b7f4d7573742070617920726f79616c747900000000000000000000000000000000600082015250565b7f4552433732313a207472616e7366657220746f20746865207a65726f2061646460008201527f7265737300000000000000000000000000000000000000000000000000000000602082015250565b7f4552433732313a20617070726f766520746f2063616c6c657200000000000000600082015250565b7f4552433732313a206f70657261746f7220717565727920666f72206e6f6e657860008201527f697374656e7420746f6b656e0000000000000000000000000000000000000000602082015250565b7f4552433732313a20617070726f76652063616c6c6572206973206e6f74206f7760008201527f6e6572206e6f7220617070726f76656420666f7220616c6c0000000000000000602082015250565b7f4552433732313a2062616c616e636520717565727920666f7220746865207a6560008201527f726f206164647265737300000000000000000000000000000000000000000000602082015250565b7f4552433732313a206f776e657220717565727920666f72206e6f6e657869737460008201527f656e7420746f6b656e0000000000000000000000000000000000000000000000602082015250565b7f506c656173652073656e64207468652061736b696e6720707269636520696e2060008201527f6f7264657220746f20636f6d706c657465207468652070757263686173650000602082015250565b7f4552433732313a20617070726f76656420717565727920666f72206e6f6e657860008201527f697374656e7420746f6b656e0000000000000000000000000000000000000000602082015250565b7f4f776e61626c653a2063616c6c6572206973206e6f7420746865206f776e6572600082015250565b7f4552433732314d657461646174613a2055524920717565727920666f72206e6f60008201527f6e6578697374656e7420746f6b656e0000000000000000000000000000000000602082015250565b7f4552433732313a20617070726f76616c20746f2063757272656e74206f776e6560008201527f7200000000000000000000000000000000000000000000000000000000000000602082015250565b7f4552433732313a207472616e736665722063616c6c6572206973206e6f74206f60008201527f776e6572206e6f7220617070726f766564000000000000000000000000000000602082015250565b6139638161320a565b811461396e57600080fd5b50565b61397a8161322e565b811461398557600080fd5b50565b6139918161323a565b811461399c57600080fd5b50565b6139a881613286565b81146139b357600080fd5b5056fea264697066735822122038f9ad6e47a35213e3efaaba1339aff0c0d6af21a630e1f49064a868346d520464736f6c6343000804003368747470733a2f2f62616679626569616c7966637a70637068366a377335646a646f6975726e36613271706a327a796a7533367a63687177646468716466787963706d2e697066732e6e667473746f726167652e6c696e6b2f",
  "linkReferences": {},
  "deployedLinkReferences": {}
}